{
    "contractName": "MintNft",
    "abi": [
        {
            "inputs": [
                {
                    "internalType": "string",
                    "name": "baseUri",
                    "type": "string"
                },
                {
                    "internalType": "address",
                    "name": "whitelistContract",
                    "type": "address"
                }
            ],
            "stateMutability": "nonpayable",
            "type": "constructor"
        },
        {
            "anonymous": false,
            "inputs": [
                {
                    "indexed": true,
                    "internalType": "address",
                    "name": "owner",
                    "type": "address"
                },
                {
                    "indexed": true,
                    "internalType": "address",
                    "name": "approved",
                    "type": "address"
                },
                {
                    "indexed": true,
                    "internalType": "uint256",
                    "name": "tokenId",
                    "type": "uint256"
                }
            ],
            "name": "Approval",
            "type": "event"
        },
        {
            "anonymous": false,
            "inputs": [
                {
                    "indexed": true,
                    "internalType": "address",
                    "name": "owner",
                    "type": "address"
                },
                {
                    "indexed": true,
                    "internalType": "address",
                    "name": "operator",
                    "type": "address"
                },
                {
                    "indexed": false,
                    "internalType": "bool",
                    "name": "approved",
                    "type": "bool"
                }
            ],
            "name": "ApprovalForAll",
            "type": "event"
        },
        {
            "anonymous": false,
            "inputs": [
                {
                    "indexed": true,
                    "internalType": "address",
                    "name": "previousOwner",
                    "type": "address"
                },
                {
                    "indexed": true,
                    "internalType": "address",
                    "name": "newOwner",
                    "type": "address"
                }
            ],
            "name": "OwnershipTransferred",
            "type": "event"
        },
        {
            "anonymous": false,
            "inputs": [
                {
                    "indexed": true,
                    "internalType": "address",
                    "name": "from",
                    "type": "address"
                },
                {
                    "indexed": true,
                    "internalType": "address",
                    "name": "to",
                    "type": "address"
                },
                {
                    "indexed": true,
                    "internalType": "uint256",
                    "name": "tokenId",
                    "type": "uint256"
                }
            ],
            "name": "Transfer",
            "type": "event"
        },
        {
            "inputs": [],
            "name": "_price",
            "outputs": [
                {
                    "internalType": "uint256",
                    "name": "",
                    "type": "uint256"
                }
            ],
            "stateMutability": "view",
            "type": "function"
        },
        {
            "inputs": [
                {
                    "internalType": "address",
                    "name": "to",
                    "type": "address"
                },
                {
                    "internalType": "uint256",
                    "name": "tokenId",
                    "type": "uint256"
                }
            ],
            "name": "approve",
            "outputs": [],
            "stateMutability": "nonpayable",
            "type": "function"
        },
        {
            "inputs": [
                {
                    "internalType": "address",
                    "name": "owner",
                    "type": "address"
                }
            ],
            "name": "balanceOf",
            "outputs": [
                {
                    "internalType": "uint256",
                    "name": "",
                    "type": "uint256"
                }
            ],
            "stateMutability": "view",
            "type": "function"
        },
        {
            "inputs": [
                {
                    "internalType": "uint256",
                    "name": "tokenId",
                    "type": "uint256"
                }
            ],
            "name": "getApproved",
            "outputs": [
                {
                    "internalType": "address",
                    "name": "",
                    "type": "address"
                }
            ],
            "stateMutability": "view",
            "type": "function"
        },
        {
            "inputs": [
                {
                    "internalType": "address",
                    "name": "owner",
                    "type": "address"
                },
                {
                    "internalType": "address",
                    "name": "operator",
                    "type": "address"
                }
            ],
            "name": "isApprovedForAll",
            "outputs": [
                {
                    "internalType": "bool",
                    "name": "",
                    "type": "bool"
                }
            ],
            "stateMutability": "view",
            "type": "function"
        },
        {
            "inputs": [],
            "name": "maxTokenIds",
            "outputs": [
                {
                    "internalType": "uint256",
                    "name": "",
                    "type": "uint256"
                }
            ],
            "stateMutability": "view",
            "type": "function"
        },
        {
            "inputs": [],
            "name": "name",
            "outputs": [
                {
                    "internalType": "string",
                    "name": "",
                    "type": "string"
                }
            ],
            "stateMutability": "view",
            "type": "function"
        },
        {
            "inputs": [],
            "name": "owner",
            "outputs": [
                {
                    "internalType": "address",
                    "name": "",
                    "type": "address"
                }
            ],
            "stateMutability": "view",
            "type": "function"
        },
        {
            "inputs": [
                {
                    "internalType": "uint256",
                    "name": "tokenId",
                    "type": "uint256"
                }
            ],
            "name": "ownerOf",
            "outputs": [
                {
                    "internalType": "address",
                    "name": "",
                    "type": "address"
                }
            ],
            "stateMutability": "view",
            "type": "function"
        },
        {
            "inputs": [],
            "name": "presaleEnded",
            "outputs": [
                {
                    "internalType": "uint256",
                    "name": "",
                    "type": "uint256"
                }
            ],
            "stateMutability": "view",
            "type": "function"
        },
        {
            "inputs": [],
            "name": "presaleMint",
            "outputs": [],
            "stateMutability": "payable",
            "type": "function"
        },
        {
            "inputs": [],
            "name": "presaleStarted",
            "outputs": [
                {
                    "internalType": "bool",
                    "name": "",
                    "type": "bool"
                }
            ],
            "stateMutability": "view",
            "type": "function"
        },
        {
            "inputs": [],
            "name": "renounceOwnership",
            "outputs": [],
            "stateMutability": "nonpayable",
            "type": "function"
        },
        {
            "inputs": [
                {
                    "internalType": "address",
                    "name": "from",
                    "type": "address"
                },
                {
                    "internalType": "address",
                    "name": "to",
                    "type": "address"
                },
                {
                    "internalType": "uint256",
                    "name": "tokenId",
                    "type": "uint256"
                }
            ],
            "name": "safeTransferFrom",
            "outputs": [],
            "stateMutability": "nonpayable",
            "type": "function"
        },
        {
            "inputs": [
                {
                    "internalType": "address",
                    "name": "from",
                    "type": "address"
                },
                {
                    "internalType": "address",
                    "name": "to",
                    "type": "address"
                },
                {
                    "internalType": "uint256",
                    "name": "tokenId",
                    "type": "uint256"
                },
                {
                    "internalType": "bytes",
                    "name": "data",
                    "type": "bytes"
                }
            ],
            "name": "safeTransferFrom",
            "outputs": [],
            "stateMutability": "nonpayable",
            "type": "function"
        },
        {
            "inputs": [
                {
                    "internalType": "address",
                    "name": "operator",
                    "type": "address"
                },
                {
                    "internalType": "bool",
                    "name": "approved",
                    "type": "bool"
                }
            ],
            "name": "setApprovalForAll",
            "outputs": [],
            "stateMutability": "nonpayable",
            "type": "function"
        },
        {
            "inputs": [],
            "name": "startPresale",
            "outputs": [],
            "stateMutability": "nonpayable",
            "type": "function"
        },
        {
            "inputs": [
                {
                    "internalType": "bytes4",
                    "name": "interfaceId",
                    "type": "bytes4"
                }
            ],
            "name": "supportsInterface",
            "outputs": [
                {
                    "internalType": "bool",
                    "name": "",
                    "type": "bool"
                }
            ],
            "stateMutability": "view",
            "type": "function"
        },
        {
            "inputs": [],
            "name": "symbol",
            "outputs": [
                {
                    "internalType": "string",
                    "name": "",
                    "type": "string"
                }
            ],
            "stateMutability": "view",
            "type": "function"
        },
        {
            "inputs": [
                {
                    "internalType": "uint256",
                    "name": "index",
                    "type": "uint256"
                }
            ],
            "name": "tokenByIndex",
            "outputs": [
                {
                    "internalType": "uint256",
                    "name": "",
                    "type": "uint256"
                }
            ],
            "stateMutability": "view",
            "type": "function"
        },
        {
            "inputs": [],
            "name": "tokenIds",
            "outputs": [
                {
                    "internalType": "uint256",
                    "name": "",
                    "type": "uint256"
                }
            ],
            "stateMutability": "view",
            "type": "function"
        },
        {
            "inputs": [
                {
                    "internalType": "address",
                    "name": "owner",
                    "type": "address"
                },
                {
                    "internalType": "uint256",
                    "name": "index",
                    "type": "uint256"
                }
            ],
            "name": "tokenOfOwnerByIndex",
            "outputs": [
                {
                    "internalType": "uint256",
                    "name": "",
                    "type": "uint256"
                }
            ],
            "stateMutability": "view",
            "type": "function"
        },
        {
            "inputs": [
                {
                    "internalType": "uint256",
                    "name": "tokenId",
                    "type": "uint256"
                }
            ],
            "name": "tokenURI",
            "outputs": [
                {
                    "internalType": "string",
                    "name": "",
                    "type": "string"
                }
            ],
            "stateMutability": "view",
            "type": "function"
        },
        {
            "inputs": [],
            "name": "totalSupply",
            "outputs": [
                {
                    "internalType": "uint256",
                    "name": "",
                    "type": "uint256"
                }
            ],
            "stateMutability": "view",
            "type": "function"
        },
        {
            "inputs": [
                {
                    "internalType": "address",
                    "name": "from",
                    "type": "address"
                },
                {
                    "internalType": "address",
                    "name": "to",
                    "type": "address"
                },
                {
                    "internalType": "uint256",
                    "name": "tokenId",
                    "type": "uint256"
                }
            ],
            "name": "transferFrom",
            "outputs": [],
            "stateMutability": "nonpayable",
            "type": "function"
        },
        {
            "inputs": [
                {
                    "internalType": "address",
                    "name": "newOwner",
                    "type": "address"
                }
            ],
            "name": "transferOwnership",
            "outputs": [],
            "stateMutability": "nonpayable",
            "type": "function"
        }
    ],
    "bytecode": "60806040526014600e55662386f26fc100006010553480156200002157600080fd5b50604051620021cd380380620021cd83398101604081905262000044916200017c565b6040518060400160405280600781526020016656616c6f736b6960c81b815250604051806040016040528060038152602001624f564960e81b8152508160009081620000919190620002f3565b506001620000a08282620002f3565b505050620000bd620000b7620000f360201b60201c565b620000f7565b600b620000cb8382620002f3565b50600c80546001600160a01b0319166001600160a01b039290921691909117905550620003bf565b3390565b600a80546001600160a01b038381166001600160a01b0319831681179093556040519116919082907f8be0079c531659141344cd1fd0a4f28419497f9722a3daafe3b4186f6b6457e090600090a35050565b634e487b7160e01b600052604160045260246000fd5b80516001600160a01b03811681146200017757600080fd5b919050565b600080604083850312156200019057600080fd5b82516001600160401b0380821115620001a857600080fd5b818501915085601f830112620001bd57600080fd5b815181811115620001d257620001d262000149565b604051601f8201601f19908116603f01168101908382118183101715620001fd57620001fd62000149565b816040528281526020935088848487010111156200021a57600080fd5b600091505b828210156200023e57848201840151818301850152908301906200021f565b6000848483010152809650505050620002598186016200015f565b925050509250929050565b600181811c908216806200027957607f821691505b6020821081036200029a57634e487b7160e01b600052602260045260246000fd5b50919050565b601f821115620002ee57600081815260208120601f850160051c81016020861015620002c95750805b601f850160051c820191505b81811015620002ea57828155600101620002d5565b5050505b505050565b81516001600160401b038111156200030f576200030f62000149565b620003278162000320845462000264565b84620002a0565b602080601f8311600181146200035f5760008415620003465750858301515b600019600386901b1c1916600185901b178555620002ea565b600085815260208120601f198616915b8281101562000390578886015182559484019460019091019084016200036f565b5085821015620003af5787850151600019600388901b60f8161c191681555b5050505050600190811b01905550565b611dfe80620003cf6000396000f3fe6080604052600436106101815760003560e01c80635f769621116100d157806395d89b411161008a578063c87b56dd11610064578063c87b56dd1461041e578063e580b2b01461043e578063e985e9c514610454578063f2fde38b1461049d57600080fd5b806395d89b41146103c9578063a22cb465146103de578063b88d4fde146103fe57600080fd5b80635f7696211461032a5780636352211e1461034057806370a0823114610360578063714cff5614610380578063715018a6146103965780638da5cb5b146103ab57600080fd5b806318160ddd1161013e5780632f745c59116101185780632f745c59146102c257806342842e0e146102e25780634f6ccce71461030257806359533d6c1461032257600080fd5b806318160ddd1461026d578063235b6ea11461028c57806323b872dd146102a257600080fd5b806301ffc9a71461018657806304549d6f146101bb57806304c98b2b146101dc57806306fdde03146101f3578063081812fc14610215578063095ea7b31461024d575b600080fd5b34801561019257600080fd5b506101a66101a13660046118fc565b6104bd565b60405190151581526020015b60405180910390f35b3480156101c757600080fd5b50600c546101a690600160a01b900460ff1681565b3480156101e857600080fd5b506101f16104e8565b005b3480156101ff57600080fd5b50610208610514565b6040516101b29190611969565b34801561022157600080fd5b5061023561023036600461197c565b6105a6565b6040516001600160a01b0390911681526020016101b2565b34801561025957600080fd5b506101f16102683660046119b1565b6105cd565b34801561027957600080fd5b506008545b6040519081526020016101b2565b34801561029857600080fd5b5061027e60105481565b3480156102ae57600080fd5b506101f16102bd3660046119db565b6106e7565b3480156102ce57600080fd5b5061027e6102dd3660046119b1565b610718565b3480156102ee57600080fd5b506101f16102fd3660046119db565b6107ae565b34801561030e57600080fd5b5061027e61031d36600461197c565b6107c9565b6101f161085c565b34801561033657600080fd5b5061027e600e5481565b34801561034c57600080fd5b5061023561035b36600461197c565b610a47565b34801561036c57600080fd5b5061027e61037b366004611a17565b610aa7565b34801561038c57600080fd5b5061027e600f5481565b3480156103a257600080fd5b506101f1610b2d565b3480156103b757600080fd5b50600a546001600160a01b0316610235565b3480156103d557600080fd5b50610208610b3f565b3480156103ea57600080fd5b506101f16103f9366004611a40565b610b4e565b34801561040a57600080fd5b506101f1610419366004611a8d565b610b5d565b34801561042a57600080fd5b5061020861043936600461197c565b610b95565b34801561044a57600080fd5b5061027e600d5481565b34801561046057600080fd5b506101a661046f366004611b69565b6001600160a01b03918216600090815260056020908152604080832093909416825291909152205460ff1690565b3480156104a957600080fd5b506101f16104b8366004611a17565b610c09565b60006001600160e01b0319821663780e9d6360e01b14806104e257506104e282610c82565b92915050565b6104f0610cd2565b600c805460ff60a01b1916600160a01b17905561050f4261012c611bb2565b600d55565b60606000805461052390611bc5565b80601f016020809104026020016040519081016040528092919081815260200182805461054f90611bc5565b801561059c5780601f106105715761010080835404028352916020019161059c565b820191906000526020600020905b81548152906001019060200180831161057f57829003601f168201915b5050505050905090565b60006105b182610d2c565b506000908152600460205260409020546001600160a01b031690565b60006105d882610a47565b9050806001600160a01b0316836001600160a01b03160361064a5760405162461bcd60e51b815260206004820152602160248201527f4552433732313a20617070726f76616c20746f2063757272656e74206f776e656044820152603960f91b60648201526084015b60405180910390fd5b336001600160a01b03821614806106665750610666813361046f565b6106d85760405162461bcd60e51b815260206004820152603d60248201527f4552433732313a20617070726f76652063616c6c6572206973206e6f7420746f60448201527f6b656e206f776e6572206f7220617070726f76656420666f7220616c6c0000006064820152608401610641565b6106e28383610d8b565b505050565b6106f13382610df9565b61070d5760405162461bcd60e51b815260040161064190611bff565b6106e2838383610e78565b600061072383610aa7565b82106107855760405162461bcd60e51b815260206004820152602b60248201527f455243373231456e756d657261626c653a206f776e657220696e646578206f7560448201526a74206f6620626f756e647360a81b6064820152608401610641565b506001600160a01b03919091166000908152600660209081526040808320938352929052205490565b6106e283838360405180602001604052806000815250610b5d565b60006107d460085490565b82106108375760405162461bcd60e51b815260206004820152602c60248201527f455243373231456e756d657261626c653a20676c6f62616c20696e646578206f60448201526b7574206f6620626f756e647360a01b6064820152608401610641565b6008828154811061084a5761084a611c4c565b90600052602060002001549050919050565b600c54600160a01b900460ff1680156108765750600d5442105b6108c25760405162461bcd60e51b815260206004820152601c60248201527f536f7272792c207468652070726573616c652068617320656e646564000000006044820152606401610641565b600c5460405162d9267b60e31b81523360048201526001600160a01b03909116906306c933d890602401602060405180830381865afa158015610909573d6000803e3d6000fd5b505050506040513d601f19601f8201168201806040525081019061092d9190611c62565b6109795760405162461bcd60e51b815260206004820152601d60248201527f596f75206469646e2774206a6f696e207468652077686974656c6973740000006044820152606401610641565b600e54600f5411156109cd5760405162461bcd60e51b815260206004820152601760248201527f50726f7669646564204c696d69742045786365656465640000000000000000006044820152606401610641565b601054341015610a1f5760405162461bcd60e51b815260206004820152601960248201527f45746865722073656e74206973206e6f7420636f7272656374000000000000006044820152606401610641565b6001600f6000828254610a329190611bb2565b92505081905550610a4533600f54610fe9565b565b6000818152600260205260408120546001600160a01b0316806104e25760405162461bcd60e51b8152602060048201526018602482015277115490cdcc8c4e881a5b9d985b1a59081d1bdad95b88125160421b6044820152606401610641565b60006001600160a01b038216610b115760405162461bcd60e51b815260206004820152602960248201527f4552433732313a2061646472657373207a65726f206973206e6f7420612076616044820152683634b21037bbb732b960b91b6064820152608401610641565b506001600160a01b031660009081526003602052604090205490565b610b35610cd2565b610a456000611003565b60606001805461052390611bc5565b610b59338383611055565b5050565b610b673383610df9565b610b835760405162461bcd60e51b815260040161064190611bff565b610b8f84848484611123565b50505050565b6060610ba082610d2c565b6000610bb760408051602081019091526000815290565b90506000815111610bd75760405180602001604052806000815250610c02565b80610be184611156565b604051602001610bf2929190611c7f565b6040516020818303038152906040525b9392505050565b610c11610cd2565b6001600160a01b038116610c765760405162461bcd60e51b815260206004820152602660248201527f4f776e61626c653a206e6577206f776e657220697320746865207a65726f206160448201526564647265737360d01b6064820152608401610641565b610c7f81611003565b50565b60006001600160e01b031982166380ac58cd60e01b1480610cb357506001600160e01b03198216635b5e139f60e01b145b806104e257506301ffc9a760e01b6001600160e01b03198316146104e2565b600a546001600160a01b03163314610a455760405162461bcd60e51b815260206004820181905260248201527f4f776e61626c653a2063616c6c6572206973206e6f7420746865206f776e65726044820152606401610641565b6000818152600260205260409020546001600160a01b0316610c7f5760405162461bcd60e51b8152602060048201526018602482015277115490cdcc8c4e881a5b9d985b1a59081d1bdad95b88125160421b6044820152606401610641565b600081815260046020526040902080546001600160a01b0319166001600160a01b0384169081179091558190610dc082610a47565b6001600160a01b03167f8c5be1e5ebec7d5bd14f71427d1e84f3dd0314c0f7b2291e5b200ac8c7c3b92560405160405180910390a45050565b600080610e0583610a47565b9050806001600160a01b0316846001600160a01b03161480610e4c57506001600160a01b0380821660009081526005602090815260408083209388168352929052205460ff165b80610e705750836001600160a01b0316610e65846105a6565b6001600160a01b0316145b949350505050565b826001600160a01b0316610e8b82610a47565b6001600160a01b031614610eb15760405162461bcd60e51b815260040161064190611cae565b6001600160a01b038216610f135760405162461bcd60e51b8152602060048201526024808201527f4552433732313a207472616e7366657220746f20746865207a65726f206164646044820152637265737360e01b6064820152608401610641565b610f2083838360016111e9565b826001600160a01b0316610f3382610a47565b6001600160a01b031614610f595760405162461bcd60e51b815260040161064190611cae565b600081815260046020908152604080832080546001600160a01b03199081169091556001600160a01b0387811680865260038552838620805460001901905590871680865283862080546001019055868652600290945282852080549092168417909155905184937fddf252ad1be2c89b69c2b068fc378daa952ba7f163c4a11628f55a4df523b3ef91a4505050565b610b59828260405180602001604052806000815250611329565b600a80546001600160a01b038381166001600160a01b0319831681179093556040519116919082907f8be0079c531659141344cd1fd0a4f28419497f9722a3daafe3b4186f6b6457e090600090a35050565b816001600160a01b0316836001600160a01b0316036110b65760405162461bcd60e51b815260206004820152601960248201527f4552433732313a20617070726f766520746f2063616c6c6572000000000000006044820152606401610641565b6001600160a01b03838116600081815260056020908152604080832094871680845294825291829020805460ff191686151590811790915591519182527f17307eab39ab6107e8899845ad3d59bd9653f200f220920489ca2b5937696c31910160405180910390a3505050565b61112e848484610e78565b61113a8484848461135c565b610b8f5760405162461bcd60e51b815260040161064190611cf3565b606060006111638361145d565b600101905060008167ffffffffffffffff81111561118357611183611a77565b6040519080825280601f01601f1916602001820160405280156111ad576020820181803683370190505b5090508181016020015b600019016f181899199a1a9b1b9c1cb0b131b232b360811b600a86061a8153600a85049450846111b757509392505050565b6111f584848484611535565b60018111156112645760405162461bcd60e51b815260206004820152603560248201527f455243373231456e756d657261626c653a20636f6e7365637574697665207472604482015274185b9cd9995c9cc81b9bdd081cdd5c1c1bdc9d1959605a1b6064820152608401610641565b816001600160a01b0385166112c0576112bb81600880546000838152600960205260408120829055600182018355919091527ff3f7a9fe364faab93b216da50a3214154f22a0a2b415b23a84c8169e8b636ee30155565b6112e3565b836001600160a01b0316856001600160a01b0316146112e3576112e385826115bd565b6001600160a01b0384166112ff576112fa8161165a565b611322565b846001600160a01b0316846001600160a01b031614611322576113228482611709565b5050505050565b611333838361174d565b611340600084848461135c565b6106e25760405162461bcd60e51b815260040161064190611cf3565b60006001600160a01b0384163b1561145257604051630a85bd0160e11b81526001600160a01b0385169063150b7a02906113a0903390899088908890600401611d45565b6020604051808303816000875af19250505080156113db575060408051601f3d908101601f191682019092526113d891810190611d82565b60015b611438573d808015611409576040519150601f19603f3d011682016040523d82523d6000602084013e61140e565b606091505b5080516000036114305760405162461bcd60e51b815260040161064190611cf3565b805181602001fd5b6001600160e01b031916630a85bd0160e11b149050610e70565b506001949350505050565b60008072184f03e93ff9f4daa797ed6e38ed64bf6a1f0160401b831061149c5772184f03e93ff9f4daa797ed6e38ed64bf6a1f0160401b830492506040015b6d04ee2d6d415b85acef810000000083106114c8576d04ee2d6d415b85acef8100000000830492506020015b662386f26fc1000083106114e657662386f26fc10000830492506010015b6305f5e10083106114fe576305f5e100830492506008015b612710831061151257612710830492506004015b60648310611524576064830492506002015b600a83106104e25760010192915050565b6001811115610b8f576001600160a01b0384161561157b576001600160a01b03841660009081526003602052604081208054839290611575908490611d9f565b90915550505b6001600160a01b03831615610b8f576001600160a01b038316600090815260036020526040812080548392906115b2908490611bb2565b909155505050505050565b600060016115ca84610aa7565b6115d49190611d9f565b600083815260076020526040902054909150808214611627576001600160a01b03841660009081526006602090815260408083208584528252808320548484528184208190558352600790915290208190555b5060009182526007602090815260408084208490556001600160a01b039094168352600681528383209183525290812055565b60085460009061166c90600190611d9f565b6000838152600960205260408120546008805493945090928490811061169457611694611c4c565b9060005260206000200154905080600883815481106116b5576116b5611c4c565b60009182526020808320909101929092558281526009909152604080822084905585825281205560088054806116ed576116ed611db2565b6001900381819060005260206000200160009055905550505050565b600061171483610aa7565b6001600160a01b039093166000908152600660209081526040808320868452825280832085905593825260079052919091209190915550565b6001600160a01b0382166117a35760405162461bcd60e51b815260206004820181905260248201527f4552433732313a206d696e7420746f20746865207a65726f20616464726573736044820152606401610641565b6000818152600260205260409020546001600160a01b0316156118085760405162461bcd60e51b815260206004820152601c60248201527f4552433732313a20746f6b656e20616c7265616479206d696e746564000000006044820152606401610641565b6118166000838360016111e9565b6000818152600260205260409020546001600160a01b03161561187b5760405162461bcd60e51b815260206004820152601c60248201527f4552433732313a20746f6b656e20616c7265616479206d696e746564000000006044820152606401610641565b6001600160a01b038216600081815260036020908152604080832080546001019055848352600290915280822080546001600160a01b0319168417905551839291907fddf252ad1be2c89b69c2b068fc378daa952ba7f163c4a11628f55a4df523b3ef908290a45050565b6001600160e01b031981168114610c7f57600080fd5b60006020828403121561190e57600080fd5b8135610c02816118e6565b60005b8381101561193457818101518382015260200161191c565b50506000910152565b60008151808452611955816020860160208601611919565b601f01601f19169290920160200192915050565b602081526000610c02602083018461193d565b60006020828403121561198e57600080fd5b5035919050565b80356001600160a01b03811681146119ac57600080fd5b919050565b600080604083850312156119c457600080fd5b6119cd83611995565b946020939093013593505050565b6000806000606084860312156119f057600080fd5b6119f984611995565b9250611a0760208501611995565b9150604084013590509250925092565b600060208284031215611a2957600080fd5b610c0282611995565b8015158114610c7f57600080fd5b60008060408385031215611a5357600080fd5b611a5c83611995565b91506020830135611a6c81611a32565b809150509250929050565b634e487b7160e01b600052604160045260246000fd5b60008060008060808587031215611aa357600080fd5b611aac85611995565b9350611aba60208601611995565b925060408501359150606085013567ffffffffffffffff80821115611ade57600080fd5b818701915087601f830112611af257600080fd5b813581811115611b0457611b04611a77565b604051601f8201601f19908116603f01168101908382118183101715611b2c57611b2c611a77565b816040528281528a6020848701011115611b4557600080fd5b82602086016020830137600060208483010152809550505050505092959194509250565b60008060408385031215611b7c57600080fd5b611b8583611995565b9150611b9360208401611995565b90509250929050565b634e487b7160e01b600052601160045260246000fd5b808201808211156104e2576104e2611b9c565b600181811c90821680611bd957607f821691505b602082108103611bf957634e487b7160e01b600052602260045260246000fd5b50919050565b6020808252602d908201527f4552433732313a2063616c6c6572206973206e6f7420746f6b656e206f776e6560408201526c1c881bdc88185c1c1c9bdd9959609a1b606082015260800190565b634e487b7160e01b600052603260045260246000fd5b600060208284031215611c7457600080fd5b8151610c0281611a32565b60008351611c91818460208801611919565b835190830190611ca5818360208801611919565b01949350505050565b60208082526025908201527f4552433732313a207472616e736665722066726f6d20696e636f72726563742060408201526437bbb732b960d91b606082015260800190565b60208082526032908201527f4552433732313a207472616e7366657220746f206e6f6e20455243373231526560408201527131b2b4bb32b91034b6b83632b6b2b73a32b960711b606082015260800190565b6001600160a01b0385811682528416602082015260408101839052608060608201819052600090611d789083018461193d565b9695505050505050565b600060208284031215611d9457600080fd5b8151610c02816118e6565b818103818111156104e2576104e2611b9c565b634e487b7160e01b600052603160045260246000fdfea2646970667358221220fa0ec7fdefe70222da9ce53c28de9fe34d62787af2d1baf518197fdf7d5ec96c64736f6c63430008110033",
    "sourcePath": "/home/developer/todos/web3-projects/NFT-Collection/contracts/MintNft.sol",
    "compiler": {
        "name": "solc",
        "version": "0.8.17+commit.8df45f5f"
    },
    "functionHashes": {
        "_price()": "235b6ea1",
        "approve(address,uint256)": "095ea7b3",
        "balanceOf(address)": "70a08231",
        "getApproved(uint256)": "081812fc",
        "isApprovedForAll(address,address)": "e985e9c5",
        "maxTokenIds()": "5f769621",
        "name()": "06fdde03",
        "owner()": "8da5cb5b",
        "ownerOf(uint256)": "6352211e",
        "presaleEnded()": "e580b2b0",
        "presaleMint()": "59533d6c",
        "presaleStarted()": "04549d6f",
        "renounceOwnership()": "715018a6",
        "safeTransferFrom(address,address,uint256)": "42842e0e",
        "safeTransferFrom(address,address,uint256,bytes)": "b88d4fde",
        "setApprovalForAll(address,bool)": "a22cb465",
        "startPresale()": "04c98b2b",
        "supportsInterface(bytes4)": "01ffc9a7",
        "symbol()": "95d89b41",
        "tokenByIndex(uint256)": "4f6ccce7",
        "tokenIds()": "714cff56",
        "tokenOfOwnerByIndex(address,uint256)": "2f745c59",
        "tokenURI(uint256)": "c87b56dd",
        "totalSupply()": "18160ddd",
        "transferFrom(address,address,uint256)": "23b872dd",
        "transferOwnership(address)": "f2fde38b"
    },
    "gasEstimates": {
        "creation": {
            "codeDepositCost": "1535600",
            "executionCost": "infinite",
            "totalCost": "infinite"
        },
        "external": {
            "_price()": "2363",
            "approve(address,uint256)": "infinite",
            "balanceOf(address)": "2656",
            "getApproved(uint256)": "4836",
            "isApprovedForAll(address,address)": "infinite",
            "maxTokenIds()": "2318",
            "name()": "infinite",
            "owner()": "2464",
            "ownerOf(uint256)": "2583",
            "presaleEnded()": "2361",
            "presaleMint()": "infinite",
            "presaleStarted()": "2362",
            "renounceOwnership()": "infinite",
            "safeTransferFrom(address,address,uint256)": "infinite",
            "safeTransferFrom(address,address,uint256,bytes)": "infinite",
            "setApprovalForAll(address,bool)": "26779",
            "startPresale()": "48789",
            "supportsInterface(bytes4)": "infinite",
            "symbol()": "infinite",
            "tokenByIndex(uint256)": "6804",
            "tokenIds()": "2384",
            "tokenOfOwnerByIndex(address,uint256)": "4975",
            "tokenURI(uint256)": "infinite",
            "totalSupply()": "2327",
            "transferFrom(address,address,uint256)": "infinite",
            "transferOwnership(address)": "28446"
        }
    }
}